{
  "_format": "hh-sol-artifact-1",
  "contractName": "ArtiziaMarketplace",
  "sourceName": "contracts/ArtiziaMarketplace.sol",
  "abi": [
    {
      "inputs": [
        {
          "internalType": "address",
          "name": "_token",
          "type": "address"
        }
      ],
      "stateMutability": "nonpayable",
      "type": "constructor"
    },
    {
      "inputs": [],
      "name": "invalidListingType",
      "type": "error"
    },
    {
      "inputs": [],
      "name": "invalidPrice",
      "type": "error"
    },
    {
      "anonymous": false,
      "inputs": [
        {
          "indexed": false,
          "internalType": "address",
          "name": "nftContract",
          "type": "address"
        },
        {
          "indexed": false,
          "internalType": "uint256",
          "name": "tokenId",
          "type": "uint256"
        },
        {
          "indexed": false,
          "internalType": "address",
          "name": "seller",
          "type": "address"
        },
        {
          "indexed": false,
          "internalType": "address",
          "name": "owner",
          "type": "address"
        },
        {
          "indexed": false,
          "internalType": "uint256",
          "name": "price",
          "type": "uint256"
        }
      ],
      "name": "NFTListed",
      "type": "event"
    },
    {
      "anonymous": false,
      "inputs": [
        {
          "indexed": false,
          "internalType": "address",
          "name": "nftContract",
          "type": "address"
        },
        {
          "indexed": false,
          "internalType": "uint256",
          "name": "tokenId",
          "type": "uint256"
        },
        {
          "indexed": false,
          "internalType": "address",
          "name": "seller",
          "type": "address"
        },
        {
          "indexed": false,
          "internalType": "address",
          "name": "owner",
          "type": "address"
        },
        {
          "indexed": false,
          "internalType": "uint256",
          "name": "price",
          "type": "uint256"
        }
      ],
      "name": "NFTSold",
      "type": "event"
    },
    {
      "anonymous": false,
      "inputs": [
        {
          "indexed": true,
          "internalType": "address",
          "name": "previousOwner",
          "type": "address"
        },
        {
          "indexed": true,
          "internalType": "address",
          "name": "newOwner",
          "type": "address"
        }
      ],
      "name": "OwnershipTransferred",
      "type": "event"
    },
    {
      "anonymous": false,
      "inputs": [
        {
          "indexed": false,
          "internalType": "uint256",
          "name": "newTime",
          "type": "uint256"
        }
      ],
      "name": "auctionEndTimeIncreased",
      "type": "event"
    },
    {
      "stateMutability": "payable",
      "type": "fallback"
    },
    {
      "inputs": [],
      "name": "UNISWAP_ROUTER_ADDRESS",
      "outputs": [
        {
          "internalType": "address",
          "name": "",
          "type": "address"
        }
      ],
      "stateMutability": "view",
      "type": "function"
    },
    {
      "inputs": [],
      "name": "USDT_ADDRESS",
      "outputs": [
        {
          "internalType": "address",
          "name": "",
          "type": "address"
        }
      ],
      "stateMutability": "view",
      "type": "function"
    },
    {
      "inputs": [
        {
          "internalType": "uint256",
          "name": "",
          "type": "uint256"
        }
      ],
      "name": "_idToAuction",
      "outputs": [
        {
          "internalType": "uint256",
          "name": "tokenId",
          "type": "uint256"
        },
        {
          "internalType": "address payable",
          "name": "seller",
          "type": "address"
        },
        {
          "internalType": "uint256",
          "name": "basePrice",
          "type": "uint256"
        },
        {
          "internalType": "uint256",
          "name": "startTime",
          "type": "uint256"
        },
        {
          "internalType": "uint256",
          "name": "endTime",
          "type": "uint256"
        },
        {
          "internalType": "uint256",
          "name": "highestBid",
          "type": "uint256"
        },
        {
          "internalType": "address payable",
          "name": "highestBidder",
          "type": "address"
        },
        {
          "internalType": "enum ArtiziaMarketplace.PaymentMethod",
          "name": "highestBidCurrency",
          "type": "uint8"
        },
        {
          "internalType": "bool",
          "name": "isLive",
          "type": "bool"
        }
      ],
      "stateMutability": "view",
      "type": "function"
    },
    {
      "inputs": [
        {
          "internalType": "uint256",
          "name": "",
          "type": "uint256"
        }
      ],
      "name": "_idToNFT",
      "outputs": [
        {
          "internalType": "address",
          "name": "nftContract",
          "type": "address"
        },
        {
          "internalType": "uint256",
          "name": "tokenId",
          "type": "uint256"
        },
        {
          "internalType": "address payable",
          "name": "firstOwner",
          "type": "address"
        },
        {
          "internalType": "address payable",
          "name": "seller",
          "type": "address"
        },
        {
          "internalType": "address payable",
          "name": "owner",
          "type": "address"
        },
        {
          "internalType": "uint256",
          "name": "price",
          "type": "uint256"
        },
        {
          "internalType": "bool",
          "name": "listed",
          "type": "bool"
        },
        {
          "internalType": "uint256",
          "name": "royaltyPrice",
          "type": "uint256"
        },
        {
          "internalType": "enum ArtiziaMarketplace.ListingType",
          "name": "listingType",
          "type": "uint8"
        },
        {
          "internalType": "enum ArtiziaMarketplace.PaymentMethod",
          "name": "paymentMethod",
          "type": "uint8"
        }
      ],
      "stateMutability": "view",
      "type": "function"
    },
    {
      "inputs": [],
      "name": "_nftCount",
      "outputs": [
        {
          "internalType": "uint256",
          "name": "_value",
          "type": "uint256"
        }
      ],
      "stateMutability": "view",
      "type": "function"
    },
    {
      "inputs": [],
      "name": "_nftsSold",
      "outputs": [
        {
          "internalType": "uint256",
          "name": "_value",
          "type": "uint256"
        }
      ],
      "stateMutability": "view",
      "type": "function"
    },
    {
      "inputs": [
        {
          "internalType": "address[]",
          "name": "fans",
          "type": "address[]"
        }
      ],
      "name": "addFans",
      "outputs": [],
      "stateMutability": "nonpayable",
      "type": "function"
    },
    {
      "inputs": [
        {
          "internalType": "address",
          "name": "_user",
          "type": "address"
        }
      ],
      "name": "banUser",
      "outputs": [],
      "stateMutability": "nonpayable",
      "type": "function"
    },
    {
      "inputs": [
        {
          "internalType": "address",
          "name": "",
          "type": "address"
        }
      ],
      "name": "bannedUsers",
      "outputs": [
        {
          "internalType": "bool",
          "name": "",
          "type": "bool"
        }
      ],
      "stateMutability": "view",
      "type": "function"
    },
    {
      "inputs": [
        {
          "internalType": "uint256",
          "name": "_tokenId",
          "type": "uint256"
        },
        {
          "internalType": "uint256",
          "name": "_bidCurrency",
          "type": "uint256"
        }
      ],
      "name": "bidInETH",
      "outputs": [],
      "stateMutability": "payable",
      "type": "function"
    },
    {
      "inputs": [
        {
          "internalType": "uint256",
          "name": "_tokenId",
          "type": "uint256"
        },
        {
          "internalType": "uint256",
          "name": "_amount",
          "type": "uint256"
        },
        {
          "internalType": "uint256",
          "name": "_bidCurrency",
          "type": "uint256"
        }
      ],
      "name": "bidInUSDT",
      "outputs": [],
      "stateMutability": "payable",
      "type": "function"
    },
    {
      "inputs": [
        {
          "internalType": "address",
          "name": "_nftContract",
          "type": "address"
        },
        {
          "internalType": "uint256",
          "name": "_paymentMethod",
          "type": "uint256"
        },
        {
          "internalType": "uint256",
          "name": "_tokenId",
          "type": "uint256"
        }
      ],
      "name": "buyWithETH",
      "outputs": [],
      "stateMutability": "payable",
      "type": "function"
    },
    {
      "inputs": [
        {
          "internalType": "address",
          "name": "_nftContract",
          "type": "address"
        },
        {
          "internalType": "uint256",
          "name": "_paymentMethod",
          "type": "uint256"
        },
        {
          "internalType": "uint256",
          "name": "_tokenId",
          "type": "uint256"
        },
        {
          "internalType": "uint256",
          "name": "_amount",
          "type": "uint256"
        }
      ],
      "name": "buyWithUSDT",
      "outputs": [],
      "stateMutability": "payable",
      "type": "function"
    },
    {
      "inputs": [],
      "name": "checkBannedOrDeletedUser",
      "outputs": [
        {
          "internalType": "bool",
          "name": "",
          "type": "bool"
        }
      ],
      "stateMutability": "view",
      "type": "function"
    },
    {
      "inputs": [
        {
          "internalType": "address",
          "name": "_nftContract",
          "type": "address"
        },
        {
          "internalType": "uint256",
          "name": "_tokenId",
          "type": "uint256"
        }
      ],
      "name": "closeAuction",
      "outputs": [],
      "stateMutability": "payable",
      "type": "function"
    },
    {
      "inputs": [
        {
          "internalType": "address",
          "name": "_user",
          "type": "address"
        }
      ],
      "name": "deleteUser",
      "outputs": [],
      "stateMutability": "nonpayable",
      "type": "function"
    },
    {
      "inputs": [
        {
          "internalType": "address",
          "name": "",
          "type": "address"
        }
      ],
      "name": "deletedUsers",
      "outputs": [
        {
          "internalType": "bool",
          "name": "",
          "type": "bool"
        }
      ],
      "stateMutability": "view",
      "type": "function"
    },
    {
      "inputs": [
        {
          "internalType": "address",
          "name": "",
          "type": "address"
        },
        {
          "internalType": "uint256",
          "name": "",
          "type": "uint256"
        }
      ],
      "name": "fanLists",
      "outputs": [
        {
          "internalType": "address",
          "name": "",
          "type": "address"
        }
      ],
      "stateMutability": "view",
      "type": "function"
    },
    {
      "inputs": [],
      "name": "getContractBalance",
      "outputs": [
        {
          "internalType": "uint256",
          "name": "",
          "type": "uint256"
        }
      ],
      "stateMutability": "view",
      "type": "function"
    },
    {
      "inputs": [],
      "name": "getFans",
      "outputs": [
        {
          "internalType": "address[]",
          "name": "",
          "type": "address[]"
        }
      ],
      "stateMutability": "view",
      "type": "function"
    },
    {
      "inputs": [
        {
          "internalType": "uint256",
          "name": "_tokenId",
          "type": "uint256"
        }
      ],
      "name": "getHighestBid",
      "outputs": [
        {
          "internalType": "uint256",
          "name": "",
          "type": "uint256"
        }
      ],
      "stateMutability": "view",
      "type": "function"
    },
    {
      "inputs": [],
      "name": "getLatestUSDTPrice",
      "outputs": [
        {
          "internalType": "uint256",
          "name": "",
          "type": "uint256"
        }
      ],
      "stateMutability": "view",
      "type": "function"
    },
    {
      "inputs": [],
      "name": "getListedNfts",
      "outputs": [
        {
          "components": [
            {
              "internalType": "address",
              "name": "nftContract",
              "type": "address"
            },
            {
              "internalType": "uint256",
              "name": "tokenId",
              "type": "uint256"
            },
            {
              "internalType": "address payable",
              "name": "firstOwner",
              "type": "address"
            },
            {
              "internalType": "address payable",
              "name": "seller",
              "type": "address"
            },
            {
              "internalType": "address payable",
              "name": "owner",
              "type": "address"
            },
            {
              "internalType": "uint256",
              "name": "price",
              "type": "uint256"
            },
            {
              "internalType": "bool",
              "name": "listed",
              "type": "bool"
            },
            {
              "internalType": "uint256",
              "name": "royaltyPrice",
              "type": "uint256"
            },
            {
              "internalType": "enum ArtiziaMarketplace.ListingType",
              "name": "listingType",
              "type": "uint8"
            },
            {
              "internalType": "enum ArtiziaMarketplace.PaymentMethod",
              "name": "paymentMethod",
              "type": "uint8"
            }
          ],
          "internalType": "struct ArtiziaMarketplace.NFT[]",
          "name": "",
          "type": "tuple[]"
        }
      ],
      "stateMutability": "view",
      "type": "function"
    },
    {
      "inputs": [
        {
          "internalType": "address",
          "name": "_user",
          "type": "address"
        }
      ],
      "name": "getMyListedNfts",
      "outputs": [
        {
          "components": [
            {
              "internalType": "address",
              "name": "nftContract",
              "type": "address"
            },
            {
              "internalType": "uint256",
              "name": "tokenId",
              "type": "uint256"
            },
            {
              "internalType": "address payable",
              "name": "firstOwner",
              "type": "address"
            },
            {
              "internalType": "address payable",
              "name": "seller",
              "type": "address"
            },
            {
              "internalType": "address payable",
              "name": "owner",
              "type": "address"
            },
            {
              "internalType": "uint256",
              "name": "price",
              "type": "uint256"
            },
            {
              "internalType": "bool",
              "name": "listed",
              "type": "bool"
            },
            {
              "internalType": "uint256",
              "name": "royaltyPrice",
              "type": "uint256"
            },
            {
              "internalType": "enum ArtiziaMarketplace.ListingType",
              "name": "listingType",
              "type": "uint8"
            },
            {
              "internalType": "enum ArtiziaMarketplace.PaymentMethod",
              "name": "paymentMethod",
              "type": "uint8"
            }
          ],
          "internalType": "struct ArtiziaMarketplace.NFT[]",
          "name": "",
          "type": "tuple[]"
        }
      ],
      "stateMutability": "view",
      "type": "function"
    },
    {
      "inputs": [
        {
          "internalType": "address",
          "name": "_user",
          "type": "address"
        }
      ],
      "name": "getMyNfts",
      "outputs": [
        {
          "components": [
            {
              "internalType": "address",
              "name": "nftContract",
              "type": "address"
            },
            {
              "internalType": "uint256",
              "name": "tokenId",
              "type": "uint256"
            },
            {
              "internalType": "address payable",
              "name": "firstOwner",
              "type": "address"
            },
            {
              "internalType": "address payable",
              "name": "seller",
              "type": "address"
            },
            {
              "internalType": "address payable",
              "name": "owner",
              "type": "address"
            },
            {
              "internalType": "uint256",
              "name": "price",
              "type": "uint256"
            },
            {
              "internalType": "bool",
              "name": "listed",
              "type": "bool"
            },
            {
              "internalType": "uint256",
              "name": "royaltyPrice",
              "type": "uint256"
            },
            {
              "internalType": "enum ArtiziaMarketplace.ListingType",
              "name": "listingType",
              "type": "uint8"
            },
            {
              "internalType": "enum ArtiziaMarketplace.PaymentMethod",
              "name": "paymentMethod",
              "type": "uint8"
            }
          ],
          "internalType": "struct ArtiziaMarketplace.NFT[]",
          "name": "",
          "type": "tuple[]"
        }
      ],
      "stateMutability": "view",
      "type": "function"
    },
    {
      "inputs": [
        {
          "internalType": "uint256",
          "name": "_tokenId",
          "type": "uint256"
        }
      ],
      "name": "getStatusOfAuction",
      "outputs": [
        {
          "internalType": "bool",
          "name": "",
          "type": "bool"
        }
      ],
      "stateMutability": "view",
      "type": "function"
    },
    {
      "inputs": [
        {
          "internalType": "address",
          "name": "",
          "type": "address"
        },
        {
          "internalType": "address",
          "name": "",
          "type": "address"
        }
      ],
      "name": "isFan",
      "outputs": [
        {
          "internalType": "bool",
          "name": "",
          "type": "bool"
        }
      ],
      "stateMutability": "view",
      "type": "function"
    },
    {
      "inputs": [
        {
          "internalType": "address",
          "name": "_nftContract",
          "type": "address"
        },
        {
          "internalType": "uint256[]",
          "name": "_tokenId",
          "type": "uint256[]"
        },
        {
          "internalType": "uint256",
          "name": "_price",
          "type": "uint256"
        },
        {
          "internalType": "uint256",
          "name": "_royaltyPrice",
          "type": "uint256"
        },
        {
          "internalType": "uint256",
          "name": "_listingType",
          "type": "uint256"
        },
        {
          "internalType": "uint256",
          "name": "_startTime",
          "type": "uint256"
        },
        {
          "internalType": "uint256",
          "name": "_endTime",
          "type": "uint256"
        },
        {
          "internalType": "uint256",
          "name": "_paymentMethod",
          "type": "uint256"
        }
      ],
      "name": "listNft",
      "outputs": [],
      "stateMutability": "payable",
      "type": "function"
    },
    {
      "inputs": [],
      "name": "owner",
      "outputs": [
        {
          "internalType": "address",
          "name": "",
          "type": "address"
        }
      ],
      "stateMutability": "view",
      "type": "function"
    },
    {
      "inputs": [],
      "name": "removeAllFans",
      "outputs": [],
      "stateMutability": "nonpayable",
      "type": "function"
    },
    {
      "inputs": [
        {
          "internalType": "address",
          "name": "fan",
          "type": "address"
        }
      ],
      "name": "removeFan",
      "outputs": [],
      "stateMutability": "nonpayable",
      "type": "function"
    },
    {
      "inputs": [],
      "name": "renounceOwnership",
      "outputs": [],
      "stateMutability": "nonpayable",
      "type": "function"
    },
    {
      "inputs": [
        {
          "internalType": "address",
          "name": "_nftContract",
          "type": "address"
        },
        {
          "internalType": "uint256",
          "name": "_tokenId",
          "type": "uint256"
        },
        {
          "internalType": "uint256",
          "name": "_price",
          "type": "uint256"
        },
        {
          "internalType": "uint256",
          "name": "_listingType",
          "type": "uint256"
        },
        {
          "internalType": "uint256",
          "name": "_startTime",
          "type": "uint256"
        },
        {
          "internalType": "uint256",
          "name": "_endTime",
          "type": "uint256"
        },
        {
          "internalType": "uint256",
          "name": "_paymentMethod",
          "type": "uint256"
        }
      ],
      "name": "resellNft",
      "outputs": [],
      "stateMutability": "nonpayable",
      "type": "function"
    },
    {
      "inputs": [
        {
          "internalType": "uint256",
          "name": "usdtAmountOut",
          "type": "uint256"
        }
      ],
      "name": "swapETHForUSDT",
      "outputs": [],
      "stateMutability": "payable",
      "type": "function"
    },
    {
      "inputs": [
        {
          "internalType": "uint256",
          "name": "usdtAmountIn",
          "type": "uint256"
        }
      ],
      "name": "swapUSDTForETH",
      "outputs": [],
      "stateMutability": "nonpayable",
      "type": "function"
    },
    {
      "inputs": [
        {
          "internalType": "address",
          "name": "newOwner",
          "type": "address"
        }
      ],
      "name": "transferOwnership",
      "outputs": [],
      "stateMutability": "nonpayable",
      "type": "function"
    },
    {
      "inputs": [
        {
          "internalType": "address",
          "name": "_user",
          "type": "address"
        }
      ],
      "name": "unbanUser",
      "outputs": [],
      "stateMutability": "nonpayable",
      "type": "function"
    },
    {
      "stateMutability": "payable",
      "type": "receive"
    }
  ],
  "bytecode": "0x6080604052600b80546001600160a01b0319908116737a250d5630b4cf539739df2c5dacb4c659f2488d17909155600c805490911673dac17f958d2ee523a2206206994597c13d831ec71790553480156200005957600080fd5b506040516200508b3803806200508b8339810160408190526200007c9162000120565b60016000556200008c33620000ce565b60048054336001600160a01b031991821617909155600b54600d80546001600160a01b03928316908416179055600e8054909216921691909117905562000152565b600180546001600160a01b038381166001600160a01b0319831681179093556040519116919082907f8be0079c531659141344cd1fd0a4f28419497f9722a3daafe3b4186f6b6457e090600090a35050565b6000602082840312156200013357600080fd5b81516001600160a01b03811681146200014b57600080fd5b9392505050565b614f2980620001626000396000f3fe6080604052600436106102065760003560e01c80638988d07811610117578063b4fa0412116100a5578063d6cbb2021161006c578063d6cbb202146106dd578063ed5a1c0f146106f4578063f2fde38b1461072f578063f41dfb181461074f578063f6c1b77a1461076257005b8063b4fa04121461055d578063b8b3455d146105ee578063b9e07df114610601578063bbffa07b1461069d578063c1892058146106bd57005b80638da5cb5b116100e95780638da5cb5b146104c75780638f288644146104e557806398dd36bf146105155780639c7440581461052a578063b48deb601461054a57005b80638988d0781461044257806389ec8e1c146104725780638cd410f4146104925780638d6cb3fb146104b257005b80635674c2e611610194578063715018a611610166578063715018a61461039257806377ec6a47146103a757806379b36943146103d75780638090551e1461040f5780638110c5791461042257005b80635674c2e614610327578063572e2afe1461034c5780635c60f2261461035f5780636f9fb98a1461037f57005b80633b295cb0116101d85780633b295cb01461029f578063438364a1146102b45780634c070fe7146102c75780634d12b695146102da5780635274cff6146102fa57005b80630760943e1461020f57806310d86b1f1461023a57806331824a491461025a57806331a7a70f1461027f57005b3661020d57005b005b34801561021b57600080fd5b50610224610782565b6040516102319190614407565b60405180910390f35b34801561024657600080fd5b5061020d61025536600461442f565b610827565b34801561026657600080fd5b506002546102719081565b604051908152602001610231565b34801561028b57600080fd5b5061020d61029a3660046144b7565b610853565b3480156102ab57600080fd5b5061020d6109ee565b61020d6102c2366004614556565b610a8f565b61020d6102d5366004614582565b6111f3565b3480156102e657600080fd5b5061020d6102f536600461442f565b61187d565b34801561030657600080fd5b5061031a61031536600461442f565b6118a6565b60405161023191906145f7565b34801561033357600080fd5b5061033c611b62565b6040519015158152602001610231565b61020d61035a3660046146c4565b611ba0565b34801561036b57600080fd5b5061020d61037a36600461442f565b6120da565b34801561038b57600080fd5b5047610271565b34801561039e57600080fd5b5061020d612106565b3480156103b357600080fd5b5061033c6103c236600461442f565b600a6020526000908152604090205460ff1681565b3480156103e357600080fd5b50600b546103f7906001600160a01b031681565b6040516001600160a01b039091168152602001610231565b61020d61041d3660046146f9565b61211a565b34801561042e57600080fd5b5061020d61043d366004614712565b612367565b34801561044e57600080fd5b5061033c61045d36600461442f565b60096020526000908152604090205460ff1681565b34801561047e57600080fd5b5061020d61048d36600461442f565b612752565b34801561049e57600080fd5b5061020d6104ad3660046146f9565b612950565b3480156104be57600080fd5b5061031a612d16565b3480156104d357600080fd5b506001546001600160a01b03166103f7565b3480156104f157600080fd5b506102716105003660046146f9565b60009081526006602052604090206005015490565b34801561052157600080fd5b50610271612fa7565b34801561053657600080fd5b5061033c6105453660046146f9565b613085565b61020d610558366004614767565b6130ca565b34801561056957600080fd5b506105d96105783660046146f9565b6006602081905260009182526040909120805460018201546002830154600384015460048501546005860154959096015493956001600160a01b0393841695929491939092919081169060ff600160a01b8204811691600160a81b90041689565b60405161023199989796959493929190614840565b61020d6105fc36600461489f565b613794565b34801561060d57600080fd5b5061068761061c3660046146f9565b60056020819052600091825260409091208054600182015460028301546003840154600485015495850154600686015460078701546008909701546001600160a01b03968716989597948716969384169590931693919260ff9182169291818116916101009004168a565b6040516102319a999897969594939291906148cb565b3480156106a957600080fd5b506103f76106b8366004614556565b613af6565b3480156106c957600080fd5b50600c546103f7906001600160a01b031681565b3480156106e957600080fd5b506003546102719081565b34801561070057600080fd5b5061033c61070f36600461493c565b600760209081526000928352604080842090915290825290205460ff1681565b34801561073b57600080fd5b5061020d61074a36600461442f565b613b2e565b61020d61075d366004614975565b613ba4565b34801561076e57600080fd5b5061031a61077d36600461442f565b613eba565b336000908152600a602052604090205460609060ff16156107be5760405162461bcd60e51b81526004016107b590614997565b60405180910390fd5b336000908152600860209081526040918290208054835181840281018401909452808452909183018282801561081d57602002820191906000526020600020905b81546001600160a01b031681526001909101906020018083116107ff575b5050505050905090565b61082f6140ff565b6001600160a01b03166000908152600960205260409020805460ff19166001179055565b336000908152600a602052604090205460ff16156108835760405162461bcd60e51b81526004016107b590614997565b60005b81518110156109ea5760008282815181106108a3576108a3614a07565b6020026020010151905060006001600160a01b0316816001600160a01b031614156109065760405162461bcd60e51b8152602060048201526013602482015272496e76616c69642066616e206164647265737360681b60448201526064016107b5565b3360009081526007602090815260408083206001600160a01b038516845290915290205460ff161561097a5760405162461bcd60e51b815260206004820152601860248201527f4164647265737320697320616c726561647920612066616e000000000000000060448201526064016107b5565b3360008181526008602090815260408083208054600180820183559185528385200180546001600160a01b0319166001600160a01b039790971696871790559383526007825280832094835293905291909120805460ff19169091179055806109e281614a33565b915050610886565b5050565b336000908152600860205260408120905b8154811015610a735733600090815260076020526040812083548290859085908110610a2d57610a2d614a07565b6000918252602080832091909101546001600160a01b031683528201929092526040019020805460ff191691151591909117905580610a6b81614a33565b9150506109ff565b50336000908152600860205260408120610a8c91614339565b50565b6000818152600660205260409020600401544211610aeb5760405162461bcd60e51b8152602060048201526019602482015278105d58dd1a5bdb881a185cc81b9bdd08195b991959081e595d603a1b60448201526064016107b5565b600081815260066020819052604090912001546001600160a01b0316610b4f5760405162461bcd60e51b8152602060048201526019602482015278105d58dd1a5bdb881a185cc81b9bdd08195b991959081e595d603a1b60448201526064016107b5565b60008181526005602090815260408083206006928390529220908101546001600160a01b0316610cbd57600181810154908301546040516323b872dd60e01b81526001600160a01b03878116936323b872dd93610bb493309390921691600401614a4e565b600060405180830381600087803b158015610bce57600080fd5b505af1158015610be2573d6000803e3d6000fd5b50505060038301546004840180546001600160a01b0319166001600160a01b039283161790556006808401805460ff60a81b19169055808501805460ff19169055600086815260208290526040902001541615159050610cbd5760405162461bcd60e51b815260206004820152604a60248201527f4e6f7468696e6720746f20636c61696d2e20596f75206861766520676f74203060448201527f2062696473206f6e20796f75722061756374696f6e2e2052657475726e696e67606482015269103cb7bab91027232a1760b11b608482015260a4016107b5565b6006808201805460ff60a81b19168155908301805460ff19169055600582015490546004840180546001600160a01b0319166001600160a01b0390921691909117905560009081908190816008870154610100900460ff166002811115610d2657610d266145bd565b1415610e935760016006860154600160a01b900460ff166002811115610d4e57610d4e6145bd565b1415610d75576000610d5e612fa7565b610d689083614a72565b9050610d7381612950565b505b600286015460048701546001600160a01b0390811691161415610de857610d9b81614159565b610da59082614a94565b60038701546040519193506001600160a01b03169083156108fc029084906000818181858888f19350505050158015610de2573d6000803e3d6000fd5b50611113565b610dfa85600501548760070154614172565b9350610e0581614159565b610e0f8583614a94565b610e199190614a94565b60028701546040519193506001600160a01b03169085156108fc029086906000818181858888f19350505050158015610e56573d6000803e3d6000fd5b5060038601546040516001600160a01b039091169083156108fc029084906000818181858888f19350505050158015610de2573d6000803e3d6000fd5b60016008870154610100900460ff166002811115610eb357610eb36145bd565b14156111135760006006860154600160a01b900460ff166002811115610edb57610edb6145bd565b1415610f03576000610eeb612fa7565b610ef59083614a72565b9050610f008261211a565b90505b600286015460048701546001600160a01b039081169116141561100a57600e546040516323b872dd60e01b81526001600160a01b03909116906323b872dd90610f5490339030908690600401614a4e565b600060405180830381600087803b158015610f6e57600080fd5b505af1158015610f82573d6000803e3d6000fd5b50505050610f8f81614159565b610f999082614a94565b600e54600388015460405163a9059cbb60e01b81529294506001600160a01b039182169263a9059cbb92610fd39216908690600401614aab565b600060405180830381600087803b158015610fed57600080fd5b505af1158015611001573d6000803e3d6000fd5b50505050611113565b61101c85600501548760070154614172565b935061102781614159565b6110318583614a94565b61103b9190614a94565b600e54600388015460405163a9059cbb60e01b81529294506001600160a01b039182169263a9059cbb926110759216908690600401614aab565b600060405180830381600087803b15801561108f57600080fd5b505af11580156110a3573d6000803e3d6000fd5b5050600e54600289015460405163a9059cbb60e01b81526001600160a01b03928316945063a9059cbb93506110e092909116908890600401614aab565b600060405180830381600087803b1580156110fa57600080fd5b505af115801561110e573d6000803e3d6000fd5b505050505b600685015460018701546040516323b872dd60e01b81526001600160a01b038b8116936323b872dd9361114e93309390921691600401614a4e565b600060405180830381600087803b15801561116857600080fd5b505af115801561117c573d6000803e3d6000fd5b5050505061118e600280546001019055565b6001860154600387015460068701546040517f16f1dbd97e6bf646d429ed186cce832f1f7fd9907814293b83181e9970ab7bd2936111e1938d9391926001600160a01b0391821692909116908990614ac4565b60405180910390a15050505050505050565b3360009081526009602052604090205460ff16156112235760405162461bcd60e51b81526004016107b590614af7565b336000908152600a602052604090205460ff16156112535760405162461bcd60e51b81526004016107b590614997565b61125b614191565b600082815260056020526040812090611272612fa7565b61127c9084614a72565b60048301546001600160a01b031660009081526009602052604090205490915060ff16156112bc5760405162461bcd60e51b81526004016107b590614b2c565b60048201546001600160a01b03166000908152600a602052604090205460ff16156112f95760405162461bcd60e51b81526004016107b590614b82565b808260050154101561133a5760405162461bcd60e51b815260206004820152600a60248201526953656e64206d6f72652160b01b60448201526064016107b5565b6000600883015460ff166001811115611355576113556145bd565b146113a25760405162461bcd60e51b815260206004820152601a60248201527f54686973204e4654206973206e6f742061742061756374696f6e00000000000060448201526064016107b5565b600282015460038301546000913391839182916001600160a01b039081169116146114085760405162461bcd60e51b815260206004820152601660248201527529b2b63632b91030b732103334b939ba1037bbb732b960511b60448201526064016107b5565b600286015460038701546001600160a01b039081169116141561158157600e546040516323b872dd60e01b81526001600160a01b03909116906323b872dd9061145990339030908c90600401614a4e565b600060405180830381600087803b15801561147357600080fd5b505af1158015611487573d6000803e3d6000fd5b5050505061149487614159565b61149e9088614a94565b9050886001141561151c57600e54600387015460405163a9059cbb60e01b81526001600160a01b039283169263a9059cbb926114e1929116908590600401614aab565b600060405180830381600087803b1580156114fb57600080fd5b505af115801561150f573d6000803e3d6000fd5b5050505060019350611763565b61152581612950565b600061152f612fa7565b6115399083614a72565b60038801546040519192506001600160a01b03169082156108fc029083906000818181858888f19350505050158015611576573d6000803e3d6000fd5b506001945050611763565b6000611591888860070154614172565b905061159d8189614a94565b92506115a883614159565b6115b29089614a94565b600e546040516323b872dd60e01b81529193506001600160a01b0316906323b872dd906115e790339030908d90600401614a4e565b600060405180830381600087803b15801561160157600080fd5b505af1158015611615573d6000803e3d6000fd5b5050600e5460028a015460405163a9059cbb60e01b81526001600160a01b03928316945063a9059cbb935061165292909116908590600401614aab565b600060405180830381600087803b15801561166c57600080fd5b505af1158015611680573d6000803e3d6000fd5b50505050896001141561170057600e54600388015460405163a9059cbb60e01b81526001600160a01b039283169263a9059cbb926116c5929116908690600401614aab565b600060405180830381600087803b1580156116df57600080fd5b505af11580156116f3573d6000803e3d6000fd5b5050505060019450611761565b61170982612950565b6000611713612fa7565b61171d9084614a72565b60038901546040519192506001600160a01b03169082156108fc029083906000818181858888f1935050505015801561175a573d6000803e3d6000fd5b5060019550505b505b83156118675760018601546040516323b872dd60e01b81526001600160a01b038c16916323b872dd9161179d913091889190600401614a4e565b600060405180830381600087803b1580156117b757600080fd5b505af11580156117cb573d6000803e3d6000fd5b5050506004870180546001600160a01b0386166001600160a01b03199182161790915560038801805490911690555060068601805460ff19169055611814600280546001019055565b600186015460038701546040517f16f1dbd97e6bf646d429ed186cce832f1f7fd9907814293b83181e9970ab7bd29261185e928e926001600160a01b039091169088908890614ac4565b60405180910390a15b5050505050506118776001600055565b50505050565b6118856140ff565b6001600160a01b03166000908152600960205260409020805460ff19169055565b336000908152600a602052604090205460609060ff16156118d95760405162461bcd60e51b81526004016107b590614997565b3360009081526009602052604090205460ff16156119095760405162461bcd60e51b81526004016107b590614af7565b600061191460035490565b90506000805b82811015611984576000818152600560205260409020600301546001600160a01b03868116911614801561195f575060008181526005602052604090206006015460ff165b15611972578161196e81614a33565b9250505b8061197c81614a33565b91505061191a565b5060008167ffffffffffffffff8111156119a0576119a061444c565b6040519080825280602002602001820160405280156119d957816020015b6119c6614357565b8152602001906001900390816119be5790505b5090506000805b84811015611b55576000818152600560205260409020600301546001600160a01b038881169116148015611a25575060008181526005602052604090206006015460ff165b15611b435760008181526005602081815260409283902083516101408101855281546001600160a01b039081168252600180840154948301949094526002830154811695820195909552600382015485166060820152600482015490941660808501529182015460a0840152600682015460ff908116151560c0850152600783015460e08501526008830154610100850192911690811115611ac957611ac96145bd565b6001811115611ada57611ada6145bd565b81526020016008820160019054906101000a900460ff166002811115611b0257611b026145bd565b6002811115611b1357611b136145bd565b81525050838381518110611b2957611b29614a07565b60200260200101819052508180611b3f90614a33565b9250505b80611b4d81614a33565b9150506119e0565b509093505050505b919050565b3360009081526009602052604081205460ff1680611b8f5750336000908152600a602052604090205460ff165b15611b9a5750600190565b50600090565b3360009081526009602052604090205460ff1615611bd05760405162461bcd60e51b81526004016107b590614af7565b336000908152600a602052604090205460ff1615611c005760405162461bcd60e51b81526004016107b590614997565b611c08614191565b600081815260056020908152604080832060048101546001600160a01b0316845260099092529091205460ff1615611c525760405162461bcd60e51b81526004016107b590614b2c565b60048101546001600160a01b03166000908152600a602052604090205460ff1615611c8f5760405162461bcd60e51b81526004016107b590614b82565b8060050154341015611cf25760405162461bcd60e51b815260206004820152602660248201527f4e6f7420656e6f75676820657468657220746f20636f7665722061736b696e6760448201526520707269636560d01b60648201526084016107b5565b6000600882015460ff166001811115611d0d57611d0d6145bd565b14611d5a5760405162461bcd60e51b815260206004820152601a60248201527f54686973204e4654206973206e6f742061742061756374696f6e00000000000060448201526064016107b5565b600281015460038201546000913391839182916001600160a01b0390811691161415611e7357611d8934614159565b611d939034614a94565b905086611de05760038501546040516001600160a01b039091169082156108fc029083906000818181858888f19350505050158015611dd6573d6000803e3d6000fd5b5060019350611fc2565b611de98161211a565b6000611df3612fa7565b611dfd9083614bdf565b600e54600388015460405163a9059cbb60e01b81529293506001600160a01b039182169263a9059cbb92611e379216908590600401614aab565b600060405180830381600087803b158015611e5157600080fd5b505af1158015611e65573d6000803e3d6000fd5b505050506001945050611fc2565b60003490506000611e88828860070154614172565b9050611e9382614159565b611e9d8284614a94565b611ea79190614a94565b60028801546040519194506001600160a01b03169082156108fc029083906000818181858888f19350505050158015611ee4573d6000803e3d6000fd5b5088611f305760038701546040516001600160a01b039091169084156108fc029085906000818181858888f19350505050158015611f26573d6000803e3d6000fd5b5060019550611fbf565b611f398361211a565b6000611f43612fa7565b611f4d9085614bdf565b600e5460038a015460405163a9059cbb60e01b81529293506001600160a01b039182169263a9059cbb92611f879216908590600401614aab565b600060405180830381600087803b158015611fa157600080fd5b505af1158015611fb5573d6000803e3d6000fd5b5050505060019650505b50505b83156120c65760018501546040516323b872dd60e01b81526001600160a01b038a16916323b872dd91611ffc913091889190600401614a4e565b600060405180830381600087803b15801561201657600080fd5b505af115801561202a573d6000803e3d6000fd5b5050506004860180546001600160a01b0386166001600160a01b03199182161790915560038701805490911690555060068501805460ff19169055612073600280546001019055565b600185015460038601546040517f16f1dbd97e6bf646d429ed186cce832f1f7fd9907814293b83181e9970ab7bd2926120bd928c926001600160a01b039091169088908890614ac4565b60405180910390a15b50505050506120d56001600055565b505050565b6120e26140ff565b6001600160a01b03166000908152600a60205260409020805460ff19166001179055565b61210e6140ff565b61211860006141eb565b565b6040805160028082526060820183526000926020830190803683375050600d54604080516315ab88c960e31b815290519394506001600160a01b039091169263ad5c464892506004808301926020929190829003018186803b15801561217f57600080fd5b505afa158015612193573d6000803e3d6000fd5b505050506040513d601f19601f820116820180604052508101906121b79190614bfe565b816000815181106121ca576121ca614a07565b6001600160a01b039283166020918202929092010152600c548251911690829060019081106121fb576121fb614a07565b6001600160a01b039290921660209283029190910182015260408051600280825260608201835260009391929091830190803683375050600d5460405163d06ca61f60e01b81529293506001600160a01b03169163d06ca61f91506122669086908690600401614c1b565b60006040518083038186803b15801561227e57600080fd5b505afa158015612292573d6000803e3d6000fd5b505050506040513d6000823e601f3d908101601f191682016040526122ba9190810190614c3c565b600d5481519192506001600160a01b031690637ff36ab5903490849060019081106122e7576122e7614a07565b60200260200101518530426040518663ffffffff1660e01b81526004016123119493929190614cc2565b6000604051808303818588803b15801561232a57600080fd5b505af115801561233e573d6000803e3d6000fd5b50505050506040513d6000823e601f3d908101601f191682016040526118779190810190614c3c565b3360009081526009602052604090205460ff16156123975760405162461bcd60e51b81526004016107b590614af7565b336000908152600a602052604090205460ff16156123c75760405162461bcd60e51b81526004016107b590614997565b6123cf614191565b60008681526005602052604090208561242a5760405162461bcd60e51b815260206004820152601c60248201527f5072696365206d757374206265206174206c656173742031207765690000000060448201526064016107b5565b60048101546001600160a01b031633146124995760405162461bcd60e51b815260206004820152602a60248201527f4f6e6c7920746865206f776e6572206f6620616e206e66742063616e206c69736044820152693a103a34329037333a1760b11b60648201526084016107b5565b6040516323b872dd60e01b81526001600160a01b038916906323b872dd906124c990339030908c90600401614a4e565b600060405180830381600087803b1580156124e357600080fd5b505af11580156124f7573d6000803e3d6000fd5b5050506003820180546001600160a01b0319908116331790915560048301805490911630179055506005810186905560068101805460ff191660019081179091558590811115612549576125496145bd565b60088201805460ff191660018381811115612566576125666145bd565b021790555081600281111561257d5761257d6145bd565b60088201805461ff00191661010083600281111561259d5761259d6145bd565b021790555060018514156126f557604051806101200160405280888152602001336001600160a01b031681526020018781526020018581526020018481526020016000815260200160006001600160a01b03168152602001836002811115612607576126076145bd565b6002811115612618576126186145bd565b815260006020918201819052898152600680835260409182902084518155928401516001840180546001600160a01b039283166001600160a01b03199182161790915592850151600280860191909155606086015160038601556080860151600486015560a0860151600586015560c08601519285018054939092169383168417825560e08601519391926001600160a81b03191690911790600160a01b9084908111156126c8576126c86145bd565b0217905550610100919091015160069091018054911515600160a81b0260ff60a81b199092169190911790555b6126ff600261423d565b7fa0c6c0d02d86fdacecbaa5fdf5894bab204e31a778250474108540733a9b8d19888833308a604051612736959493929190614ac4565b60405180910390a1506127496001600055565b50505050505050565b6001600160a01b03811661279e5760405162461bcd60e51b8152602060048201526013602482015272496e76616c69642066616e206164647265737360681b60448201526064016107b5565b3360009081526007602090815260408083206001600160a01b038516845290915290205460ff166128085760405162461bcd60e51b815260206004820152601460248201527320b2323932b9b99034b9903737ba1030903330b760611b60448201526064016107b5565b336000908152600860205260408120905b815481101561292057826001600160a01b031682828154811061283e5761283e614a07565b6000918252602090912001546001600160a01b0316141561290e578154829061286990600190614a94565b8154811061287957612879614a07565b9060005260206000200160009054906101000a90046001600160a01b03168282815481106128a9576128a9614a07565b9060005260206000200160006101000a8154816001600160a01b0302191690836001600160a01b03160217905550818054806128e7576128e7614cf7565b600082815260209020810160001990810180546001600160a01b0319169055019055612920565b8061291881614a33565b915050612819565b50503360009081526007602090815260408083206001600160a01b0394909416835292905220805460ff19169055565b61297860405180604001604052806006815260200165746573743d3160d01b81525082614294565b6040805160028082526060820183526000926020830190803683375050600c5482519293506001600160a01b0316918391506000906129b9576129b9614a07565b6001600160a01b03928316602091820292909201810191909152600d54604080516315ab88c960e31b81529051919093169263ad5c4648926004808301939192829003018186803b158015612a0d57600080fd5b505afa158015612a21573d6000803e3d6000fd5b505050506040513d601f19601f82011682018060405250810190612a459190614bfe565b81600181518110612a5857612a58614a07565b6001600160a01b039283166020918202929092010152600e546040516323b872dd60e01b81529116906323b872dd90612a9990339030908790600401614a4e565b600060405180830381600087803b158015612ab357600080fd5b505af1158015612ac7573d6000803e3d6000fd5b5050600e54600b5460405163095ea7b360e01b81526001600160a01b03928316945063095ea7b39350612b0292909116908690600401614aab565b600060405180830381600087803b158015612b1c57600080fd5b505af1158015612b30573d6000803e3d6000fd5b50505050612b5a60405180604001604052806005815260200164746573743360d81b8152506142d9565b6040805160028082526060820183526000926020830190803683375050600d5460405163d06ca61f60e01b81529293506001600160a01b03169163d06ca61f9150612bab9086908690600401614c1b565b60006040518083038186803b158015612bc357600080fd5b505afa158015612bd7573d6000803e3d6000fd5b505050506040513d6000823e601f3d908101601f19168201604052612bff9190810190614c3c565b9050612c4360405180604001604052806006815260200165185b5bdd5b9d60d21b81525082600181518110612c3657612c36614a07565b6020026020010151614294565b600d5481516001600160a01b0390911690634a25d94a9083906001908110612c6d57612c6d614a07565b6020026020010151858530426040518663ffffffff1660e01b8152600401612c99959493929190614d0d565b600060405180830381600087803b158015612cb357600080fd5b505af1158015612cc7573d6000803e3d6000fd5b505050506040513d6000823e601f3d908101601f19168201604052612cef9190810190614c3c565b506120d5604051806040016040528060058152602001641d195cdd0d60da1b8152506142d9565b336000908152600a602052604090205460609060ff1615612d495760405162461bcd60e51b81526004016107b590614997565b6000612d5460035490565b90506000612d6160025490565b612d6b9083614a94565b9050612d97604051806040016040528060088152602001671b999d10dbdd5b9d60c21b81525083614294565b612dc86040518060400160405280600f81526020016e1d5b9cdbdb1913999d1cd0dbdd5b9d608a1b81525082614294565b60008167ffffffffffffffff811115612de357612de361444c565b604051908082528060200260200182016040528015612e1c57816020015b612e09614357565b815260200190600190039081612e015790505b5090506000612e4d6040518060400160405280600b81526020016a5f6964546f4e46545b695d60a81b8152506142d9565b60005b84811015612f9d5760008181526005602052604090206006015460ff1615612f8b5760008181526005602081815260409283902083516101408101855281546001600160a01b039081168252600180840154948301949094526002830154811695820195909552600382015485166060820152600482015490941660808501529182015460a0840152600682015460ff908116151560c0850152600783015460e08501526008830154610100850192911690811115612f1157612f116145bd565b6001811115612f2257612f226145bd565b81526020016008820160019054906101000a900460ff166002811115612f4a57612f4a6145bd565b6002811115612f5b57612f5b6145bd565b81525050838381518110612f7157612f71614a07565b60200260200101819052508180612f8790614a33565b9250505b80612f9581614a33565b915050612e50565b5090935050505090565b60008073ee9f2375b4bdf6387aa8265dd4fb8f16512a1d4690506000816001600160a01b031663feaf968c6040518163ffffffff1660e01b815260040160a06040518083038186803b158015612ffc57600080fd5b505afa158015613010573d6000803e3d6000fd5b505050506040513d601f19601f820116820180604052508101906130349190614d63565b5050509150506000811361307f5760405162461bcd60e51b8152602060048201526012602482015271496e76616c6964205553445420707269636560701b60448201526064016107b5565b92915050565b600081815260066020526040812060030154421180156130b5575060008281526006602052604090206004015442105b156130c257506001919050565b506000919050565b6130d2614191565b3360009081526009602052604090205460ff16156131025760405162461bcd60e51b81526004016107b590614af7565b336000908152600a602052604090205460ff16156131325760405162461bcd60e51b81526004016107b590614997565b60005b875181101561377f576131756040518060400160405280600981526020016874686973206973203160b81b815250898381518110612c3657612c36614a07565b6131a36040518060400160405280600c81526020016b5f6c697374696e675479706560a01b81525086614294565b60408051808201909152601c81527f75696e74323536284c697374696e67547970652e41756374696f6e290000000060208201526131e2906001614294565b6001851115613204576040516317142a4d60e01b815260040160405180910390fd5b61323d6040518060400160405280600b81526020016a5f746f6b656e49645b695d60a81b815250898381518110612c3657612c36614a07565b886001600160a01b03166323b872dd33308b858151811061326057613260614a07565b60200260200101516040518463ffffffff1660e01b815260040161328693929190614a4e565b600060405180830381600087803b1580156132a057600080fd5b505af11580156132b4573d6000803e3d6000fd5b505050506132e2604051806040016040528060098152602001683a3434b99034b9901960b91b8152506142d9565b6132f0600380546001019055565b61331a604051806040016040528060098152602001681d1a1a5cc81a5cc80d60ba1b8152506142d9565b6040518061014001604052808a6001600160a01b0316815260200189838151811061334757613347614a07565b60200260200101518152602001336001600160a01b03168152602001336001600160a01b03168152602001306001600160a01b031681526020018881526020016001151581526020018781526020018660018111156133a8576133a86145bd565b60018111156133b9576133b96145bd565b81526020018360028111156133d0576133d06145bd565b60028111156133e1576133e16145bd565b815250600560008a84815181106133fa576133fa614a07565b6020908102919091018101518252818101929092526040908101600020835181546001600160a01b03199081166001600160a01b039283161783559385015160018084019190915592850151600283018054861691831691909117905560608501516003830180548616918316919091179055608085015160048301805490951691161790925560a0830151600583015560c083015160068301805460ff1990811692151592909217905560e0840151600784015561010084015160088401805491939092919091169083818111156134d5576134d56145bd565b021790555061012082015160088201805461ff001916610100836002811115613500576135006145bd565b02179055509050506135326040518060400160405280600981526020016874686973206973203560b81b8152506142d9565b60018514156136eb57613565604051806040016040528060098152602001683a3434b99034b9901b60b91b8152506142d9565b60405180610120016040528089838151811061358357613583614a07565b60200260200101518152602001336001600160a01b031681526020018881526020018581526020018481526020016000815260200160006001600160a01b031681526020018360028111156135da576135da6145bd565b60028111156135eb576135eb6145bd565b815260200160001515815250600660008a848151811061360d5761360d614a07565b602090810291909101810151825281810192909252604090810160002083518155918301516001830180546001600160a01b03199081166001600160a01b039384161790915591840151600280850191909155606085015160038501556080850151600485015560a0850151600585015560c085015160068501805494851691909316908117835560e0860151936001600160a81b0319161790600160a01b9084908111156136be576136be6145bd565b0217905550610100919091015160069091018054911515600160a81b0260ff60a81b199092169190911790555b6137156040518060400160405280600981526020016874686973206973203760b81b8152506142d9565b7fa0c6c0d02d86fdacecbaa5fdf5894bab204e31a778250474108540733a9b8d198989838151811061374957613749614a07565b602002602001015133308b604051613765959493929190614ac4565b60405180910390a18061377781614a33565b915050613135565b5061378a6001600055565b5050505050505050565b600083815260066020819052604090912001548390600160a81b900460ff166137cf5760405162461bcd60e51b81526004016107b590614db3565b600081815260066020526040902060030154421180156137ff575060008181526006602052604090206004015442105b61381b5760405162461bcd60e51b81526004016107b590614db3565b336000908152600a602052604090205460ff161561384b5760405162461bcd60e51b81526004016107b590614997565b3360009081526009602052604090205460ff161561387b5760405162461bcd60e51b81526004016107b590614af7565b6000613885612fa7565b905060006138938286614a72565b6000878152600660205260409020600201549091508110156138f75760405162461bcd60e51b815260206004820152601c60248201527f4d696e696d756d206269642068617320746f206265206869676865720000000060448201526064016107b5565b6000868152600660205260409020600501548510156139285760405162461bcd60e51b81526004016107b590614dfc565b600160008781526005602052604090206008015460ff166001811115613950576139506145bd565b146139995760405162461bcd60e51b81526020600482015260196024820152782a3434b99027232a1034b99030ba1030ba1030bab1ba34b7b760391b60448201526064016107b5565b60008681526006602081905260409091209081015460058201546001600160a01b03909116908115613a2a57600e5460405163a9059cbb60e01b81526001600160a01b039091169063a9059cbb906139f79085908590600401614aab565b600060405180830381600087803b158015613a1157600080fd5b505af1158015613a25573d6000803e3d6000fd5b505050505b600583018490556006830180546001600160a01b03191633179055866002811115613a5757613a576145bd565b60068401805460ff60a01b1916600160a01b836002811115613a7b57613a7b6145bd565b0217905550613a8c42610258614e59565b83600401541015613aeb5761012c836004016000828254613aad9190614e59565b909155505060048301546040519081527f63929ab50521717a96992aeaa109afc8cfc926d99096bbeaf23ee4322db546e89060200160405180910390a15b505050505050505050565b60086020528160005260406000208181548110613b1257600080fd5b6000918252602090912001546001600160a01b03169150829050565b613b366140ff565b6001600160a01b038116613b9b5760405162461bcd60e51b815260206004820152602660248201527f4f776e61626c653a206e6577206f776e657220697320746865207a65726f206160448201526564647265737360d01b60648201526084016107b5565b610a8c816141eb565b600082815260066020819052604090912001548290600160a81b900460ff16613bdf5760405162461bcd60e51b81526004016107b590614db3565b60008181526006602052604090206003015442118015613c0f575060008181526006602052604090206004015442105b613c2b5760405162461bcd60e51b81526004016107b590614db3565b336000908152600a602052604090205460ff1615613c5b5760405162461bcd60e51b81526004016107b590614997565b3360009081526009602052604090205460ff1615613c8b5760405162461bcd60e51b81526004016107b590614af7565b600083815260066020526040902060020154341015613cec5760405162461bcd60e51b815260206004820152601c60248201527f4d696e696d756d206269642068617320746f206265206869676865720000000060448201526064016107b5565b600083815260066020526040902060050154341015613d1d5760405162461bcd60e51b81526004016107b590614dfc565b600160008481526005602052604090206008015460ff166001811115613d4557613d456145bd565b14613d8e5760405162461bcd60e51b81526020600482015260196024820152782a3434b99027232a1034b99030ba1030ba1030bab1ba34b7b760391b60448201526064016107b5565b60008381526006602081905260409091209081015460058201546001600160a01b03909116908115613df2576040516001600160a01b0383169082156108fc029083906000818181858888f19350505050158015613df0573d6000803e3d6000fd5b505b3460058401556006830180546001600160a01b03191633179055846002811115613e1e57613e1e6145bd565b60068401805460ff60a01b1916600160a01b836002811115613e4257613e426145bd565b0217905550613e5342610258614e59565b83600401541015613eb25761012c836004016000828254613e749190614e59565b909155505060048301546040519081527f63929ab50521717a96992aeaa109afc8cfc926d99096bbeaf23ee4322db546e89060200160405180910390a15b505050505050565b336000908152600a602052604090205460609060ff1615613eed5760405162461bcd60e51b81526004016107b590614997565b6000613ef860035490565b90506000805b82811015613f4b576000818152600560205260409020600401546001600160a01b0386811691161415613f395781613f3581614a33565b9250505b80613f4381614a33565b915050613efe565b5060008167ffffffffffffffff811115613f6757613f6761444c565b604051908082528060200260200182016040528015613fa057816020015b613f8d614357565b815260200190600190039081613f855790505b5090506000805b84811015611b55576000818152600560205260409020600401546001600160a01b03888116911614156140ed5760008181526005602081815260409283902083516101408101855281546001600160a01b039081168252600180840154948301949094526002830154811695820195909552600382015485166060820152600482015490941660808501529182015460a0840152600682015460ff908116151560c0850152600783015460e08501526008830154610100850192911690811115614073576140736145bd565b6001811115614084576140846145bd565b81526020016008820160019054906101000a900460ff1660028111156140ac576140ac6145bd565b60028111156140bd576140bd6145bd565b815250508383815181106140d3576140d3614a07565b602002602001018190525081806140e990614a33565b9250505b806140f781614a33565b915050613fa7565b6001546001600160a01b031633146121185760405162461bcd60e51b815260206004820181905260248201527f4f776e61626c653a2063616c6c6572206973206e6f7420746865206f776e657260448201526064016107b5565b60006064614168836003614bdf565b61307f9190614a72565b600060646141808385614bdf565b61418a9190614a72565b9392505050565b600260005414156141e45760405162461bcd60e51b815260206004820152601f60248201527f5265656e7472616e637947756172643a207265656e7472616e742063616c6c0060448201526064016107b5565b6002600055565b600180546001600160a01b038381166001600160a01b0319831681179093556040519116919082907f8be0079c531659141344cd1fd0a4f28419497f9722a3daafe3b4186f6b6457e090600090a35050565b80548061428c5760405162461bcd60e51b815260206004820152601b60248201527f436f756e7465723a2064656372656d656e74206f766572666c6f77000000000060448201526064016107b5565b600019019055565b6109ea82826040516024016142aa929190614ebe565b60408051601f198184030181529190526020810180516001600160e01b0316632d839cb360e21b179052614318565b610a8c816040516024016142ed9190614ee0565b60408051601f198184030181529190526020810180516001600160e01b031663104c13eb60e21b1790525b60006a636f6e736f6c652e6c6f679050600080835160208501845afa505050565b5080546000825590600052602060002090810190610a8c91906143aa565b6040805161014081018252600080825260208201819052918101829052606081018290526080810182905260a0810182905260c0810182905260e081018290529061010082019081526020016000905290565b5b808211156143bf57600081556001016143ab565b5090565b600081518084526020808501945080840160005b838110156143fc5781516001600160a01b0316875295820195908201906001016143d7565b509495945050505050565b60208152600061418a60208301846143c3565b6001600160a01b0381168114610a8c57600080fd5b60006020828403121561444157600080fd5b813561418a8161441a565b634e487b7160e01b600052604160045260246000fd5b604051601f8201601f1916810167ffffffffffffffff8111828210171561448b5761448b61444c565b604052919050565b600067ffffffffffffffff8211156144ad576144ad61444c565b5060051b60200190565b600060208083850312156144ca57600080fd5b823567ffffffffffffffff8111156144e157600080fd5b8301601f810185136144f257600080fd5b803561450561450082614493565b614462565b81815260059190911b8201830190838101908783111561452457600080fd5b928401925b8284101561454b57833561453c8161441a565b82529284019290840190614529565b979650505050505050565b6000806040838503121561456957600080fd5b82356145748161441a565b946020939093013593505050565b6000806000806080858703121561459857600080fd5b84356145a38161441a565b966020860135965060408601359560600135945092505050565b634e487b7160e01b600052602160045260246000fd5b600281106145e3576145e36145bd565b9052565b600381106145e3576145e36145bd565b602080825282518282018190526000919060409081850190868401855b828110156146b757815180516001600160a01b0390811686528782015188870152868201518116878701526060808301518216908701526080808301519091169086015260a0808201519086015260c08082015115159086015260e080820151908601526101008082015161468b828801826145d3565b505061012090810151906146a1868201836145e7565b5050610140939093019290850190600101614614565b5091979650505050505050565b6000806000606084860312156146d957600080fd5b83356146e48161441a565b95602085013595506040909401359392505050565b60006020828403121561470b57600080fd5b5035919050565b600080600080600080600060e0888a03121561472d57600080fd5b87356147388161441a565b9960208901359950604089013598606081013598506080810135975060a0810135965060c00135945092505050565b600080600080600080600080610100898b03121561478457600080fd5b883561478f8161441a565b975060208981013567ffffffffffffffff8111156147ac57600080fd5b8a01601f81018c136147bd57600080fd5b80356147cb61450082614493565b81815260059190911b8201830190838101908e8311156147ea57600080fd5b928401925b82841015614808578335825292840192908401906147ef565b9b9e9b9d5050505060408a0135996060810135996080820135995060a0820135985060c0820135975060e09091013595509350505050565b8981526001600160a01b03898116602083015260408201899052606082018890526080820187905260a08201869052841660c0820152610120810161488860e08301856145e7565b8215156101008301529a9950505050505050505050565b6000806000606084860312156148b457600080fd5b505081359360208301359350604090920135919050565b6001600160a01b038b81168252602082018b9052898116604083015288811660608301528716608082015260a0810186905284151560c082015260e08101849052610140810161491f6101008301856145d3565b61492d6101208301846145e7565b9b9a5050505050505050505050565b6000806040838503121561494f57600080fd5b823561495a8161441a565b9150602083013561496a8161441a565b809150509250929050565b6000806040838503121561498857600080fd5b50508035926020909101359150565b6020808252604a908201527f596f7520617265207065726d656e616e746c792064656c657465642066726f6d60408201527f207468697320706c6174666f726d20666f722076696f6c6174696e6720746865606082015269103837b634b1b4b2b99760b11b608082015260a00190565b634e487b7160e01b600052603260045260246000fd5b634e487b7160e01b600052601160045260246000fd5b6000600019821415614a4757614a47614a1d565b5060010190565b6001600160a01b039384168152919092166020820152604081019190915260600190565b600082614a8f57634e487b7160e01b600052601260045260246000fd5b500490565b600082821015614aa657614aa6614a1d565b500390565b6001600160a01b03929092168252602082015260400190565b6001600160a01b039586168152602081019490945291841660408401529092166060820152608081019190915260a00190565b6020808252818101527f596f75206172652062616e6e6564206f6e207468697320706c6174666f726d2e604082015260600190565b60208082526036908201527f546865206f776e6572206f662074686973206e667420697320626c61636b6c6960408201527539ba32b21037b7103a3434b990383630ba3337b9369760511b606082015260800190565b6020808252603d908201527f546865206f776e6572206f662074686973206e6674206973207065726d616e6160408201527f6e746c792062616e6e6564206f6e207468697320706c6174666f726d2e000000606082015260800190565b6000816000190483118215151615614bf957614bf9614a1d565b500290565b600060208284031215614c1057600080fd5b815161418a8161441a565b828152604060208201526000614c3460408301846143c3565b949350505050565b60006020808385031215614c4f57600080fd5b825167ffffffffffffffff811115614c6657600080fd5b8301601f81018513614c7757600080fd5b8051614c8561450082614493565b81815260059190911b82018301908381019087831115614ca457600080fd5b928401925b8284101561454b57835182529284019290840190614ca9565b848152608060208201526000614cdb60808301866143c3565b6001600160a01b03949094166040830152506060015292915050565b634e487b7160e01b600052603160045260246000fd5b85815284602082015260a060408201526000614d2c60a08301866143c3565b6001600160a01b0394909416606083015250608001529392505050565b805169ffffffffffffffffffff81168114611b5d57600080fd5b600080600080600060a08688031215614d7b57600080fd5b614d8486614d49565b9450602086015193506040860151925060608601519150614da760808701614d49565b90509295509295909350565b60208082526029908201527f54686973204e4654206973206e6f74206f6e2061756374696f6e206174207468604082015268329036b7b6b2b73a1760b91b606082015260800190565b6020808252603c908201527f596f75206861766520746f2062696420686967686572207468616e207468652060408201527f686967686573742062696420746f206d616b6520616e206f6666657200000000606082015260800190565b60008219821115614e6c57614e6c614a1d565b500190565b6000815180845260005b81811015614e9757602081850181015186830182015201614e7b565b81811115614ea9576000602083870101525b50601f01601f19169290920160200192915050565b604081526000614ed16040830185614e71565b90508260208301529392505050565b60208152600061418a6020830184614e7156fea264697066735822122074401f00cdb671e07d73ade33c56773c946730743aa757ccd0c44f7292d728dd64736f6c63430008090033",
  "linkReferences": {},
  "deployedLinkReferences": {}
}