{
  "_format": "hh-sol-artifact-1",
  "contractName": "ArtiziaNFT",
  "sourceName": "contracts/ArtiziaNFT.sol",
  "abi": [
    {
      "inputs": [
        {
          "internalType": "address",
          "name": "_artiziaMarketplaceContract",
          "type": "address"
        }
      ],
      "stateMutability": "nonpayable",
      "type": "constructor"
    },
    {
      "anonymous": false,
      "inputs": [
        {
          "indexed": true,
          "internalType": "address",
          "name": "owner",
          "type": "address"
        },
        {
          "indexed": true,
          "internalType": "address",
          "name": "approved",
          "type": "address"
        },
        {
          "indexed": true,
          "internalType": "uint256",
          "name": "tokenId",
          "type": "uint256"
        }
      ],
      "name": "Approval",
      "type": "event"
    },
    {
      "anonymous": false,
      "inputs": [
        {
          "indexed": true,
          "internalType": "address",
          "name": "owner",
          "type": "address"
        },
        {
          "indexed": true,
          "internalType": "address",
          "name": "operator",
          "type": "address"
        },
        {
          "indexed": false,
          "internalType": "bool",
          "name": "approved",
          "type": "bool"
        }
      ],
      "name": "ApprovalForAll",
      "type": "event"
    },
    {
      "anonymous": false,
      "inputs": [
        {
          "indexed": false,
          "internalType": "uint256",
          "name": "_fromTokenId",
          "type": "uint256"
        },
        {
          "indexed": false,
          "internalType": "uint256",
          "name": "_toTokenId",
          "type": "uint256"
        }
      ],
      "name": "BatchMetadataUpdate",
      "type": "event"
    },
    {
      "anonymous": false,
      "inputs": [
        {
          "indexed": false,
          "internalType": "uint256",
          "name": "_tokenId",
          "type": "uint256"
        }
      ],
      "name": "MetadataUpdate",
      "type": "event"
    },
    {
      "anonymous": false,
      "inputs": [
        {
          "indexed": false,
          "internalType": "uint256",
          "name": "",
          "type": "uint256"
        }
      ],
      "name": "NFTMinted",
      "type": "event"
    },
    {
      "anonymous": false,
      "inputs": [
        {
          "indexed": true,
          "internalType": "address",
          "name": "from",
          "type": "address"
        },
        {
          "indexed": true,
          "internalType": "address",
          "name": "to",
          "type": "address"
        },
        {
          "indexed": true,
          "internalType": "uint256",
          "name": "tokenId",
          "type": "uint256"
        }
      ],
      "name": "Transfer",
      "type": "event"
    },
    {
      "inputs": [
        {
          "internalType": "address",
          "name": "to",
          "type": "address"
        },
        {
          "internalType": "uint256",
          "name": "tokenId",
          "type": "uint256"
        }
      ],
      "name": "approve",
      "outputs": [],
      "stateMutability": "nonpayable",
      "type": "function"
    },
    {
      "inputs": [
        {
          "internalType": "address",
          "name": "owner",
          "type": "address"
        }
      ],
      "name": "balanceOf",
      "outputs": [
        {
          "internalType": "uint256",
          "name": "",
          "type": "uint256"
        }
      ],
      "stateMutability": "view",
      "type": "function"
    },
    {
      "inputs": [
        {
          "internalType": "uint256",
          "name": "tokenId",
          "type": "uint256"
        }
      ],
      "name": "getApproved",
      "outputs": [
        {
          "internalType": "address",
          "name": "",
          "type": "address"
        }
      ],
      "stateMutability": "view",
      "type": "function"
    },
    {
      "inputs": [],
      "name": "getMintedTokensList",
      "outputs": [
        {
          "internalType": "uint256[]",
          "name": "",
          "type": "uint256[]"
        }
      ],
      "stateMutability": "view",
      "type": "function"
    },
    {
      "inputs": [
        {
          "internalType": "address",
          "name": "owner",
          "type": "address"
        },
        {
          "internalType": "address",
          "name": "operator",
          "type": "address"
        }
      ],
      "name": "isApprovedForAll",
      "outputs": [
        {
          "internalType": "bool",
          "name": "",
          "type": "bool"
        }
      ],
      "stateMutability": "view",
      "type": "function"
    },
    {
      "inputs": [
        {
          "internalType": "string[]",
          "name": "_tokenURIs",
          "type": "string[]"
        }
      ],
      "name": "mint",
      "outputs": [],
      "stateMutability": "nonpayable",
      "type": "function"
    },
    {
      "inputs": [
        {
          "internalType": "address",
          "name": "",
          "type": "address"
        },
        {
          "internalType": "uint256",
          "name": "",
          "type": "uint256"
        }
      ],
      "name": "mintedTokensList",
      "outputs": [
        {
          "internalType": "uint256",
          "name": "",
          "type": "uint256"
        }
      ],
      "stateMutability": "view",
      "type": "function"
    },
    {
      "inputs": [],
      "name": "name",
      "outputs": [
        {
          "internalType": "string",
          "name": "",
          "type": "string"
        }
      ],
      "stateMutability": "view",
      "type": "function"
    },
    {
      "inputs": [
        {
          "internalType": "uint256",
          "name": "tokenId",
          "type": "uint256"
        }
      ],
      "name": "ownerOf",
      "outputs": [
        {
          "internalType": "address",
          "name": "",
          "type": "address"
        }
      ],
      "stateMutability": "view",
      "type": "function"
    },
    {
      "inputs": [
        {
          "internalType": "address",
          "name": "from",
          "type": "address"
        },
        {
          "internalType": "address",
          "name": "to",
          "type": "address"
        },
        {
          "internalType": "uint256",
          "name": "tokenId",
          "type": "uint256"
        }
      ],
      "name": "safeTransferFrom",
      "outputs": [],
      "stateMutability": "nonpayable",
      "type": "function"
    },
    {
      "inputs": [
        {
          "internalType": "address",
          "name": "from",
          "type": "address"
        },
        {
          "internalType": "address",
          "name": "to",
          "type": "address"
        },
        {
          "internalType": "uint256",
          "name": "tokenId",
          "type": "uint256"
        },
        {
          "internalType": "bytes",
          "name": "data",
          "type": "bytes"
        }
      ],
      "name": "safeTransferFrom",
      "outputs": [],
      "stateMutability": "nonpayable",
      "type": "function"
    },
    {
      "inputs": [
        {
          "internalType": "address",
          "name": "operator",
          "type": "address"
        },
        {
          "internalType": "bool",
          "name": "approved",
          "type": "bool"
        }
      ],
      "name": "setApprovalForAll",
      "outputs": [],
      "stateMutability": "nonpayable",
      "type": "function"
    },
    {
      "inputs": [
        {
          "internalType": "bytes4",
          "name": "interfaceId",
          "type": "bytes4"
        }
      ],
      "name": "supportsInterface",
      "outputs": [
        {
          "internalType": "bool",
          "name": "",
          "type": "bool"
        }
      ],
      "stateMutability": "view",
      "type": "function"
    },
    {
      "inputs": [],
      "name": "symbol",
      "outputs": [
        {
          "internalType": "string",
          "name": "",
          "type": "string"
        }
      ],
      "stateMutability": "view",
      "type": "function"
    },
    {
      "inputs": [
        {
          "internalType": "uint256",
          "name": "tokenId",
          "type": "uint256"
        }
      ],
      "name": "tokenURI",
      "outputs": [
        {
          "internalType": "string",
          "name": "",
          "type": "string"
        }
      ],
      "stateMutability": "view",
      "type": "function"
    },
    {
      "inputs": [
        {
          "internalType": "address",
          "name": "from",
          "type": "address"
        },
        {
          "internalType": "address",
          "name": "to",
          "type": "address"
        },
        {
          "internalType": "uint256",
          "name": "tokenId",
          "type": "uint256"
        }
      ],
      "name": "transferFrom",
      "outputs": [],
      "stateMutability": "nonpayable",
      "type": "function"
    }
  ],
  "bytecode": "0x60806040523480156200001157600080fd5b5060405162001c3938038062001c39833981016040819052620000349162000165565b6040805180820182526007815266417274697a696160c81b60208083019182528351808501909452600484526320a92a2d60e11b9084015281519192916200007f91600091620000bf565b50805162000095906001906020840190620000bf565b5050600880546001600160a01b0319166001600160a01b03939093169290921790915550620001d4565b828054620000cd9062000197565b90600052602060002090601f016020900481019282620000f157600085556200013c565b82601f106200010c57805160ff19168380011785556200013c565b828001600101855582156200013c579182015b828111156200013c5782518255916020019190600101906200011f565b506200014a9291506200014e565b5090565b5b808211156200014a57600081556001016200014f565b6000602082840312156200017857600080fd5b81516001600160a01b03811681146200019057600080fd5b9392505050565b600181811c90821680620001ac57607f821691505b60208210811415620001ce57634e487b7160e01b600052602260045260246000fd5b50919050565b611a5580620001e46000396000f3fe608060405234801561001057600080fd5b50600436106101005760003560e01c806370a0823111610097578063b6a989eb11610066578063b6a989eb1461021f578063b88d4fde14610232578063c87b56dd14610245578063e985e9c51461025857600080fd5b806370a08231146101ce57806374aecbb2146101ef57806395d89b4114610204578063a22cb4651461020c57600080fd5b806323b872dd116100d357806323b872dd1461018257806342842e0e146101955780635768f271146101a85780636352211e146101bb57600080fd5b806301ffc9a71461010557806306fdde031461012d578063081812fc14610142578063095ea7b31461016d575b600080fd5b610118610113366004611432565b610294565b60405190151581526020015b60405180910390f35b6101356102bf565b60405161012491906114a7565b6101556101503660046114ba565b610351565b6040516001600160a01b039091168152602001610124565b61018061017b3660046114ef565b610378565b005b610180610190366004611519565b610493565b6101806101a3366004611519565b6104c4565b6101806101b63660046115f4565b6104df565b6101556101c93660046114ba565b610661565b6101e16101dc3660046116cc565b6106c1565b604051908152602001610124565b6101f7610747565b60405161012491906116e7565b6101356107a7565b61018061021a36600461172b565b6107b6565b6101e161022d3660046114ef565b6107c5565b610180610240366004611767565b6107f6565b6101356102533660046114ba565b61082e565b6101186102663660046117e3565b6001600160a01b03918216600090815260056020908152604080832093909416825291909152205460ff1690565b60006001600160e01b03198216632483248360e11b14806102b957506102b98261093f565b92915050565b6060600080546102ce90611816565b80601f01602080910402602001604051908101604052809291908181526020018280546102fa90611816565b80156103475780601f1061031c57610100808354040283529160200191610347565b820191906000526020600020905b81548152906001019060200180831161032a57829003601f168201915b5050505050905090565b600061035c8261098f565b506000908152600460205260409020546001600160a01b031690565b600061038382610661565b9050806001600160a01b0316836001600160a01b031614156103f65760405162461bcd60e51b815260206004820152602160248201527f4552433732313a20617070726f76616c20746f2063757272656e74206f776e656044820152603960f91b60648201526084015b60405180910390fd5b336001600160a01b038216148061041257506104128133610266565b6104845760405162461bcd60e51b815260206004820152603d60248201527f4552433732313a20617070726f76652063616c6c6572206973206e6f7420746f60448201527f6b656e206f776e6572206f7220617070726f76656420666f7220616c6c00000060648201526084016103ed565b61048e83836109f1565b505050565b61049d3382610a5f565b6104b95760405162461bcd60e51b81526004016103ed90611851565b61048e838383610add565b61048e838383604051806020016040528060008152506107f6565b6000815167ffffffffffffffff8111156104fb576104fb611555565b604051908082528060200260200182016040528015610524578160200160208202803683370190505b50905060005b825181101561064057600061053e60075490565b905061054a3382610c41565b61056d818584815181106105605761056061189e565b6020026020010151610c5b565b600854610584906001600160a01b031660016107b6565b808383815181106105975761059761189e565b6020026020010181815250506105b1600780546001019055565b6105fa6040518060400160405280600e81526020016d6d696e746564546f6b656e49647360901b8152508484815181106105ed576105ed61189e565b6020026020010151610d2d565b6040518181527fd9dc24857f317ed9abbbb42e920ede0104231eb1d3d70236a74887ffaf1598689060200160405180910390a15080610638816118b4565b91505061052a565b50336000908152600960209081526040909120825161048e92840190611349565b6000818152600260205260408120546001600160a01b0316806102b95760405162461bcd60e51b8152602060048201526018602482015277115490cdcc8c4e881a5b9d985b1a59081d1bdad95b88125160421b60448201526064016103ed565b60006001600160a01b03821661072b5760405162461bcd60e51b815260206004820152602960248201527f4552433732313a2061646472657373207a65726f206973206e6f7420612076616044820152683634b21037bbb732b960b91b60648201526084016103ed565b506001600160a01b031660009081526003602052604090205490565b3360009081526009602090815260409182902080548351818402810184019094528084526060939283018282801561034757602002820191906000526020600020905b81548152602001906001019080831161078a575050505050905090565b6060600180546102ce90611816565b6107c1338383610d72565b5050565b600960205281600052604060002081815481106107e157600080fd5b90600052602060002001600091509150505481565b6108003383610a5f565b61081c5760405162461bcd60e51b81526004016103ed90611851565b61082884848484610e41565b50505050565b60606108398261098f565b6000828152600660205260408120805461085290611816565b80601f016020809104026020016040519081016040528092919081815260200182805461087e90611816565b80156108cb5780601f106108a0576101008083540402835291602001916108cb565b820191906000526020600020905b8154815290600101906020018083116108ae57829003601f168201915b5050505050905060006108e960408051602081019091526000815290565b90508051600014156108fc575092915050565b81511561092e5780826040516020016109169291906118dd565b60405160208183030381529060405292505050919050565b61093784610e74565b949350505050565b60006001600160e01b031982166380ac58cd60e01b148061097057506001600160e01b03198216635b5e139f60e01b145b806102b957506301ffc9a760e01b6001600160e01b03198316146102b9565b6000818152600260205260409020546001600160a01b03166109ee5760405162461bcd60e51b8152602060048201526018602482015277115490cdcc8c4e881a5b9d985b1a59081d1bdad95b88125160421b60448201526064016103ed565b50565b600081815260046020526040902080546001600160a01b0319166001600160a01b0384169081179091558190610a2682610661565b6001600160a01b03167f8c5be1e5ebec7d5bd14f71427d1e84f3dd0314c0f7b2291e5b200ac8c7c3b92560405160405180910390a45050565b600080610a6b83610661565b9050806001600160a01b0316846001600160a01b03161480610ab257506001600160a01b0380821660009081526005602090815260408083209388168352929052205460ff165b806109375750836001600160a01b0316610acb84610351565b6001600160a01b031614949350505050565b826001600160a01b0316610af082610661565b6001600160a01b031614610b165760405162461bcd60e51b81526004016103ed9061190c565b6001600160a01b038216610b785760405162461bcd60e51b8152602060048201526024808201527f4552433732313a207472616e7366657220746f20746865207a65726f206164646044820152637265737360e01b60648201526084016103ed565b826001600160a01b0316610b8b82610661565b6001600160a01b031614610bb15760405162461bcd60e51b81526004016103ed9061190c565b600081815260046020908152604080832080546001600160a01b03199081169091556001600160a01b0387811680865260038552838620805460001901905590871680865283862080546001019055868652600290945282852080549092168417909155905184937fddf252ad1be2c89b69c2b068fc378daa952ba7f163c4a11628f55a4df523b3ef91a4505050565b6107c1828260405180602001604052806000815250610ee8565b6000828152600260205260409020546001600160a01b0316610cd65760405162461bcd60e51b815260206004820152602e60248201527f45524337323155524953746f726167653a2055524920736574206f66206e6f6e60448201526d32bc34b9ba32b73a103a37b5b2b760911b60648201526084016103ed565b60008281526006602090815260409091208251610cf592840190611394565b506040518281527ff8e1a15aba9398e019f0b49df1a4fde98ee17ae345cb5f6b5e2c27f5033e8ce79060200160405180910390a15050565b6107c18282604051602401610d43929190611951565b60408051601f198184030181529190526020810180516001600160e01b0316632d839cb360e21b179052610f1b565b816001600160a01b0316836001600160a01b03161415610dd45760405162461bcd60e51b815260206004820152601960248201527f4552433732313a20617070726f766520746f2063616c6c65720000000000000060448201526064016103ed565b6001600160a01b03838116600081815260056020908152604080832094871680845294825291829020805460ff191686151590811790915591519182527f17307eab39ab6107e8899845ad3d59bd9653f200f220920489ca2b5937696c31910160405180910390a3505050565b610e4c848484610add565b610e5884848484610f3c565b6108285760405162461bcd60e51b81526004016103ed90611973565b6060610e7f8261098f565b6000610e9660408051602081019091526000815290565b90506000815111610eb65760405180602001604052806000815250610ee1565b80610ec084611049565b604051602001610ed19291906118dd565b6040516020818303038152906040525b9392505050565b610ef283836110e6565b610eff6000848484610f3c565b61048e5760405162461bcd60e51b81526004016103ed90611973565b60006a636f6e736f6c652e6c6f679050600080835160208501845afa505050565b60006001600160a01b0384163b1561103e57604051630a85bd0160e11b81526001600160a01b0385169063150b7a0290610f809033908990889088906004016119c5565b602060405180830381600087803b158015610f9a57600080fd5b505af1925050508015610fca575060408051601f3d908101601f19168201909252610fc791810190611a02565b60015b611024573d808015610ff8576040519150601f19603f3d011682016040523d82523d6000602084013e610ffd565b606091505b50805161101c5760405162461bcd60e51b81526004016103ed90611973565b805181602001fd5b6001600160e01b031916630a85bd0160e11b149050610937565b506001949350505050565b6060600061105683611271565b600101905060008167ffffffffffffffff81111561107657611076611555565b6040519080825280601f01601f1916602001820160405280156110a0576020820181803683370190505b5090508181016020015b600019016f181899199a1a9b1b9c1cb0b131b232b360811b600a86061a8153600a85049450846110d9576110de565b6110aa565b509392505050565b6001600160a01b03821661113c5760405162461bcd60e51b815260206004820181905260248201527f4552433732313a206d696e7420746f20746865207a65726f206164647265737360448201526064016103ed565b6000818152600260205260409020546001600160a01b0316156111a15760405162461bcd60e51b815260206004820152601c60248201527f4552433732313a20746f6b656e20616c7265616479206d696e7465640000000060448201526064016103ed565b6000818152600260205260409020546001600160a01b0316156112065760405162461bcd60e51b815260206004820152601c60248201527f4552433732313a20746f6b656e20616c7265616479206d696e7465640000000060448201526064016103ed565b6001600160a01b038216600081815260036020908152604080832080546001019055848352600290915280822080546001600160a01b0319168417905551839291907fddf252ad1be2c89b69c2b068fc378daa952ba7f163c4a11628f55a4df523b3ef908290a45050565b60008072184f03e93ff9f4daa797ed6e38ed64bf6a1f0160401b83106112b05772184f03e93ff9f4daa797ed6e38ed64bf6a1f0160401b830492506040015b6d04ee2d6d415b85acef810000000083106112dc576d04ee2d6d415b85acef8100000000830492506020015b662386f26fc1000083106112fa57662386f26fc10000830492506010015b6305f5e1008310611312576305f5e100830492506008015b612710831061132657612710830492506004015b60648310611338576064830492506002015b600a83106102b95760010192915050565b828054828255906000526020600020908101928215611384579160200282015b82811115611384578251825591602001919060010190611369565b50611390929150611407565b5090565b8280546113a090611816565b90600052602060002090601f0160209004810192826113c25760008555611384565b82601f106113db57805160ff1916838001178555611384565b828001600101855582156113845791820182811115611384578251825591602001919060010190611369565b5b808211156113905760008155600101611408565b6001600160e01b0319811681146109ee57600080fd5b60006020828403121561144457600080fd5b8135610ee18161141c565b60005b8381101561146a578181015183820152602001611452565b838111156108285750506000910152565b6000815180845261149381602086016020860161144f565b601f01601f19169290920160200192915050565b602081526000610ee1602083018461147b565b6000602082840312156114cc57600080fd5b5035919050565b80356001600160a01b03811681146114ea57600080fd5b919050565b6000806040838503121561150257600080fd5b61150b836114d3565b946020939093013593505050565b60008060006060848603121561152e57600080fd5b611537846114d3565b9250611545602085016114d3565b9150604084013590509250925092565b634e487b7160e01b600052604160045260246000fd5b604051601f8201601f1916810167ffffffffffffffff8111828210171561159457611594611555565b604052919050565b600067ffffffffffffffff8311156115b6576115b6611555565b6115c9601f8401601f191660200161156b565b90508281528383830111156115dd57600080fd5b828260208301376000602084830101529392505050565b6000602080838503121561160757600080fd5b823567ffffffffffffffff8082111561161f57600080fd5b818501915085601f83011261163357600080fd5b81358181111561164557611645611555565b8060051b61165485820161156b565b918252838101850191858101908984111561166e57600080fd5b86860192505b838310156116bf5782358581111561168c5760008081fd5b8601603f81018b1361169e5760008081fd5b6116af8b898301356040840161159c565b8352509186019190860190611674565b9998505050505050505050565b6000602082840312156116de57600080fd5b610ee1826114d3565b6020808252825182820181905260009190848201906040850190845b8181101561171f57835183529284019291840191600101611703565b50909695505050505050565b6000806040838503121561173e57600080fd5b611747836114d3565b91506020830135801515811461175c57600080fd5b809150509250929050565b6000806000806080858703121561177d57600080fd5b611786856114d3565b9350611794602086016114d3565b925060408501359150606085013567ffffffffffffffff8111156117b757600080fd5b8501601f810187136117c857600080fd5b6117d78782356020840161159c565b91505092959194509250565b600080604083850312156117f657600080fd5b6117ff836114d3565b915061180d602084016114d3565b90509250929050565b600181811c9082168061182a57607f821691505b6020821081141561184b57634e487b7160e01b600052602260045260246000fd5b50919050565b6020808252602d908201527f4552433732313a2063616c6c6572206973206e6f7420746f6b656e206f776e6560408201526c1c881bdc88185c1c1c9bdd9959609a1b606082015260800190565b634e487b7160e01b600052603260045260246000fd5b60006000198214156118d657634e487b7160e01b600052601160045260246000fd5b5060010190565b600083516118ef81846020880161144f565b83519083019061190381836020880161144f565b01949350505050565b60208082526025908201527f4552433732313a207472616e736665722066726f6d20696e636f72726563742060408201526437bbb732b960d91b606082015260800190565b604081526000611964604083018561147b565b90508260208301529392505050565b60208082526032908201527f4552433732313a207472616e7366657220746f206e6f6e20455243373231526560408201527131b2b4bb32b91034b6b83632b6b2b73a32b960711b606082015260800190565b6001600160a01b03858116825284166020820152604081018390526080606082018190526000906119f89083018461147b565b9695505050505050565b600060208284031215611a1457600080fd5b8151610ee18161141c56fea2646970667358221220ad21e8e8296b42d660efcdf8a79b752f943b5e75593ae20a983b9f08e8b2bd0c64736f6c63430008090033",
  "linkReferences": {},
  "deployedLinkReferences": {}
}